{"abi":[{"type":"constructor","inputs":[],"stateMutability":"nonpayable"},{"type":"function","name":"addReputation","inputs":[{"name":"agentId","type":"uint256","internalType":"uint256"},{"name":"delta","type":"uint256","internalType":"uint256"}],"outputs":[],"stateMutability":"nonpayable"},{"type":"function","name":"agentByOwner","inputs":[{"name":"","type":"address","internalType":"address"}],"outputs":[{"name":"","type":"uint256","internalType":"uint256"}],"stateMutability":"view"},{"type":"function","name":"agentByWallet","inputs":[{"name":"","type":"address","internalType":"address"}],"outputs":[{"name":"","type":"uint256","internalType":"uint256"}],"stateMutability":"view"},{"type":"function","name":"bindWallet","inputs":[{"name":"agentId","type":"uint256","internalType":"uint256"},{"name":"wallet","type":"address","internalType":"address"}],"outputs":[],"stateMutability":"nonpayable"},{"type":"function","name":"getAgent","inputs":[{"name":"agentId","type":"uint256","internalType":"uint256"}],"outputs":[{"name":"","type":"tuple","internalType":"struct AgentIdentityRegistry.AgentProfile","components":[{"name":"id","type":"uint256","internalType":"uint256"},{"name":"owner","type":"address","internalType":"address"},{"name":"name","type":"string","internalType":"string"},{"name":"metadataURI","type":"string","internalType":"string"},{"name":"wallet","type":"address","internalType":"address"},{"name":"reputation","type":"uint256","internalType":"uint256"},{"name":"exists","type":"bool","internalType":"bool"}]}],"stateMutability":"view"},{"type":"function","name":"getAgentIdByOwner","inputs":[{"name":"owner","type":"address","internalType":"address"}],"outputs":[{"name":"","type":"uint256","internalType":"uint256"}],"stateMutability":"view"},{"type":"function","name":"getAgentIdByWallet","inputs":[{"name":"wallet","type":"address","internalType":"address"}],"outputs":[{"name":"","type":"uint256","internalType":"uint256"}],"stateMutability":"view"},{"type":"function","name":"nextAgentId","inputs":[],"outputs":[{"name":"","type":"uint256","internalType":"uint256"}],"stateMutability":"view"},{"type":"function","name":"owner","inputs":[],"outputs":[{"name":"","type":"address","internalType":"address"}],"stateMutability":"view"},{"type":"function","name":"profiles","inputs":[{"name":"","type":"uint256","internalType":"uint256"}],"outputs":[{"name":"id","type":"uint256","internalType":"uint256"},{"name":"owner","type":"address","internalType":"address"},{"name":"name","type":"string","internalType":"string"},{"name":"metadataURI","type":"string","internalType":"string"},{"name":"wallet","type":"address","internalType":"address"},{"name":"reputation","type":"uint256","internalType":"uint256"},{"name":"exists","type":"bool","internalType":"bool"}],"stateMutability":"view"},{"type":"function","name":"registerAgent","inputs":[{"name":"owner","type":"address","internalType":"address"},{"name":"name","type":"string","internalType":"string"},{"name":"metadataURI","type":"string","internalType":"string"}],"outputs":[{"name":"","type":"uint256","internalType":"uint256"}],"stateMutability":"nonpayable"},{"type":"function","name":"renounceOwnership","inputs":[],"outputs":[],"stateMutability":"nonpayable"},{"type":"function","name":"setMetadataURI","inputs":[{"name":"agentId","type":"uint256","internalType":"uint256"},{"name":"metadataURI","type":"string","internalType":"string"}],"outputs":[],"stateMutability":"nonpayable"},{"type":"function","name":"transferOwnership","inputs":[{"name":"newOwner","type":"address","internalType":"address"}],"outputs":[],"stateMutability":"nonpayable"},{"type":"function","name":"updateReputation","inputs":[{"name":"agentId","type":"uint256","internalType":"uint256"},{"name":"newReputation","type":"uint256","internalType":"uint256"}],"outputs":[],"stateMutability":"nonpayable"},{"type":"event","name":"AgentRegistered","inputs":[{"name":"agentId","type":"uint256","indexed":true,"internalType":"uint256"},{"name":"owner","type":"address","indexed":true,"internalType":"address"},{"name":"name","type":"string","indexed":false,"internalType":"string"},{"name":"wallet","type":"address","indexed":false,"internalType":"address"}],"anonymous":false},{"type":"event","name":"OwnershipTransferred","inputs":[{"name":"previousOwner","type":"address","indexed":true,"internalType":"address"},{"name":"newOwner","type":"address","indexed":true,"internalType":"address"}],"anonymous":false},{"type":"event","name":"ReputationUpdated","inputs":[{"name":"agentId","type":"uint256","indexed":true,"internalType":"uint256"},{"name":"reputation","type":"uint256","indexed":false,"internalType":"uint256"}],"anonymous":false},{"type":"event","name":"WalletBound","inputs":[{"name":"agentId","type":"uint256","indexed":true,"internalType":"uint256"},{"name":"wallet","type":"address","indexed":true,"internalType":"address"}],"anonymous":false},{"type":"error","name":"OwnableInvalidOwner","inputs":[{"name":"owner","type":"address","internalType":"address"}]},{"type":"error","name":"OwnableUnauthorizedAccount","inputs":[{"name":"account","type":"address","internalType":"address"}]}],"bytecode":{"object":"0x608060405234801561000f575f80fd5b50338061003557604051631e4fbdf760e01b81525f600482015260240160405180910390fd5b61003e81610044565b50610093565b5f80546001600160a01b038381166001600160a01b0319831681178455604051919092169283917f8be0079c531659141344cd1fd0a4f28419497f9722a3daafe3b4186f6b6457e09190a35050565b611279806100a05f395ff3fe608060405234801561000f575f80fd5b50600436106100f0575f3560e01c80637216fe4811610093578063c36fe3d611610063578063c36fe3d61461020f578063d2db55cc14610235578063ee1816bf14610254578063f2fde38b14610267575f80fd5b80637216fe48146101a75780638da5cb5b146101ba578063945f923c146101d4578063ae57a2d3146101e7575f80fd5b806322a6550c116100ce57806322a6550c146101575780632de5aaf71461017657806330efc49814610196578063715018a61461019f575f80fd5b80630675f763146100f4578063087dce94146101095780631e5082381461011c575b5f80fd5b610107610102366004610c9a565b61027a565b005b610107610117366004610cff565b61030d565b61014461012a366004610d62565b6001600160a01b03165f9081526004602052604090205490565b6040519081526020015b60405180910390f35b610144610165366004610d62565b60046020525f908152604090205481565b610189610184366004610d82565b610366565b60405161014e9190610ddc565b61014460015481565b61010761053d565b6101446101b5366004610e65565b610550565b5f546040516001600160a01b03909116815260200161014e565b6101076101e2366004610c9a565b610845565b6101446101f5366004610d62565b6001600160a01b03165f9081526003602052604090205490565b61022261021d366004610d82565b6108e6565b60405161014e9796959493929190610ee0565b610144610243366004610d62565b60036020525f908152604090205481565b610107610262366004610f3c565b610a46565b610107610275366004610d62565b610be2565b610282610c1f565b5f8281526002602052604090206006015460ff166102bb5760405162461bcd60e51b81526004016102b290610f66565b60405180910390fd5b5f82815260026020526040908190206005018290555182907ea4f8488cd701f9a77136eb5c91d5e2edef3c38001ca7148525acf8a2626481906103019084815260200190565b60405180910390a25050565b610315610c1f565b5f8381526002602052604090206006015460ff166103455760405162461bcd60e51b81526004016102b290610f66565b5f838152600260205260409020600301610360828483611044565b50505050565b6103b56040518060e001604052805f81526020015f6001600160a01b0316815260200160608152602001606081526020015f6001600160a01b031681526020015f81526020015f151581525090565b5f82815260026020818152604092839020835160e0810185528154815260018201546001600160a01b031692810192909252918201805491938401916103fa90610fc0565b80601f016020809104026020016040519081016040528092919081815260200182805461042690610fc0565b80156104715780601f1061044857610100808354040283529160200191610471565b820191905f5260205f20905b81548152906001019060200180831161045457829003601f168201915b5050505050815260200160038201805461048a90610fc0565b80601f01602080910402602001604051908101604052809291908181526020018280546104b690610fc0565b80156105015780601f106104d857610100808354040283529160200191610501565b820191905f5260205f20905b8154815290600101906020018083116104e457829003601f168201915b505050918352505060048201546001600160a01b031660208201526005820154604082015260069091015460ff16151560609091015292915050565b610545610c1f565b61054e5f610c4b565b565b5f610559610c1f565b6001600160a01b0386166105b95760405162461bcd60e51b815260206004820152602160248201527f4167656e744964656e7469747952656769737472793a207a65726f206f776e656044820152603960f91b60648201526084016102b2565b836106105760405162461bcd60e51b815260206004820152602160248201527f4167656e744964656e7469747952656769737472793a20656d707479206e616d6044820152606560f81b60648201526084016102b2565b6001600160a01b0386165f90815260036020526040902054156106875760405162461bcd60e51b815260206004820152602960248201527f4167656e744964656e7469747952656769737472793a20616c726561647920726044820152681959da5cdd195c995960ba1b60648201526084016102b2565b5f60015f815461069690611112565b91905081905590506040518060e00160405280828152602001886001600160a01b0316815260200187878080601f0160208091040260200160405190810160405280939291908181526020018383808284375f92019190915250505090825250604080516020601f8801819004810282018101909252868152918101919087908790819084018382808284375f9201829052509385525050506020808301829052604080840183905260016060909401849052858352600280835292819020855181559185015193820180546001600160a01b0319166001600160a01b03909516949094179093559183015190820190610790908261112a565b50606082015160038201906107a5908261112a565b5060808201516004820180546001600160a01b0319166001600160a01b0392831617905560a0830151600583015560c0909201516006909101805460ff191691151591909117905587165f818152600360205260408082208490555183917f65623d4d611adcae4972a90f9d5f8893d8647fca78daea015e4c7078676a9d5a91610833918b918b91906111ea565b60405180910390a39695505050505050565b61084d610c1f565b5f8281526002602052604090206006015460ff1661087d5760405162461bcd60e51b81526004016102b290610f66565b5f828152600260205260408120600501805483929061089d90849061122a565b90915550505f828152600260205260409081902060050154905183917ea4f8488cd701f9a77136eb5c91d5e2edef3c38001ca7148525acf8a26264819161030191815260200190565b600260208190525f918252604090912080546001820154928201805491936001600160a01b0316929161091890610fc0565b80601f016020809104026020016040519081016040528092919081815260200182805461094490610fc0565b801561098f5780601f106109665761010080835404028352916020019161098f565b820191905f5260205f20905b81548152906001019060200180831161097257829003601f168201915b5050505050908060030180546109a490610fc0565b80601f01602080910402602001604051908101604052809291908181526020018280546109d090610fc0565b8015610a1b5780601f106109f257610100808354040283529160200191610a1b565b820191905f5260205f20905b8154815290600101906020018083116109fe57829003601f168201915b505050506004830154600584015460069094015492936001600160a01b039091169290915060ff1687565b610a4e610c1f565b5f8281526002602052604090206006015460ff16610a7e5760405162461bcd60e51b81526004016102b290610f66565b6001600160a01b038116610adf5760405162461bcd60e51b815260206004820152602260248201527f4167656e744964656e7469747952656769737472793a207a65726f2077616c6c604482015261195d60f21b60648201526084016102b2565b6001600160a01b0381165f908152600460205260409020541580610b1957506001600160a01b0381165f9081526004602052604090205482145b610b795760405162461bcd60e51b815260206004820152602b60248201527f4167656e744964656e7469747952656769737472793a2077616c6c657420616c60448201526a1c9958591e48189bdd5b9960aa1b60648201526084016102b2565b5f828152600260209081526040808320600490810180546001600160a01b0319166001600160a01b038716908117909155808552925280832085905551909184917f2f6e500eac58c4c663675b7c2bf4cff52c5b87806262c4ef517a7a26615b44b59190a35050565b610bea610c1f565b6001600160a01b038116610c1357604051631e4fbdf760e01b81525f60048201526024016102b2565b610c1c81610c4b565b50565b5f546001600160a01b0316331461054e5760405163118cdaa760e01b81523360048201526024016102b2565b5f80546001600160a01b038381166001600160a01b0319831681178455604051919092169283917f8be0079c531659141344cd1fd0a4f28419497f9722a3daafe3b4186f6b6457e09190a35050565b5f8060408385031215610cab575f80fd5b50508035926020909101359150565b5f8083601f840112610cca575f80fd5b50813567ffffffffffffffff811115610ce1575f80fd5b602083019150836020828501011115610cf8575f80fd5b9250929050565b5f805f60408486031215610d11575f80fd5b83359250602084013567ffffffffffffffff811115610d2e575f80fd5b610d3a86828701610cba565b9497909650939450505050565b80356001600160a01b0381168114610d5d575f80fd5b919050565b5f60208284031215610d72575f80fd5b610d7b82610d47565b9392505050565b5f60208284031215610d92575f80fd5b5035919050565b5f81518084525f5b81811015610dbd57602081850181015186830182015201610da1565b505f602082860101526020601f19601f83011685010191505092915050565b60208082528251828201528201516001600160a01b0390811660408084019190915283015160e060608401525f91610e18610100850183610d99565b91506060850151601f19858403016080860152610e358382610d99565b9250508060808601511660a08501525060a084015160c084015260c0840151151560e08401528091505092915050565b5f805f805f60608688031215610e79575f80fd5b610e8286610d47565b9450602086013567ffffffffffffffff80821115610e9e575f80fd5b610eaa89838a01610cba565b90965094506040880135915080821115610ec2575f80fd5b50610ecf88828901610cba565b969995985093965092949392505050565b8781525f60018060a01b03808916602084015260e06040840152610f0760e0840189610d99565b8381036060850152610f198189610d99565b969091166080840152505060a0810192909252151560c090910152949350505050565b5f8060408385031215610f4d575f80fd5b82359150610f5d60208401610d47565b90509250929050565b60208082526026908201527f4167656e744964656e7469747952656769737472793a206167656e74206e6f7460408201526508199bdd5b9960d21b606082015260800190565b634e487b7160e01b5f52604160045260245ffd5b600181811c90821680610fd457607f821691505b602082108103610ff257634e487b7160e01b5f52602260045260245ffd5b50919050565b601f82111561103f57805f5260205f20601f840160051c8101602085101561101d5750805b601f840160051c820191505b8181101561103c575f8155600101611029565b50505b505050565b67ffffffffffffffff83111561105c5761105c610fac565b6110708361106a8354610fc0565b83610ff8565b5f601f8411600181146110a1575f851561108a5750838201355b5f19600387901b1c1916600186901b17835561103c565b5f83815260208120601f198716915b828110156110d057868501358255602094850194600190920191016110b0565b50868210156110ec575f1960f88860031b161c19848701351681555b505060018560011b0183555050505050565b634e487b7160e01b5f52601160045260245ffd5b5f60018201611123576111236110fe565b5060010190565b815167ffffffffffffffff81111561114457611144610fac565b611158816111528454610fc0565b84610ff8565b602080601f83116001811461118b575f84156111745750858301515b5f19600386901b1c1916600185901b1785556111e2565b5f85815260208120601f198616915b828110156111b95788860151825594840194600190910190840161119a565b50858210156111d657878501515f19600388901b60f8161c191681555b505060018460011b0185555b505050505050565b60408152826040820152828460608301375f60608483018101919091526001600160a01b03929092166020820152601f909201601f191690910101919050565b8082018082111561123d5761123d6110fe565b9291505056fea26469706673582212209e36384026265c7c80ed0cb77d931a3877e12ccae9c70709360670537d970b1264736f6c63430008180033","linkReferences":{}},"methodIdentifiers":{"addReputation(uint256,uint256)":"945f923c","agentByOwner(address)":"d2db55cc","agentByWallet(address)":"22a6550c","bindWallet(uint256,address)":"ee1816bf","getAgent(uint256)":"2de5aaf7","getAgentIdByOwner(address)":"ae57a2d3","getAgentIdByWallet(address)":"1e508238","nextAgentId()":"30efc498","owner()":"8da5cb5b","profiles(uint256)":"c36fe3d6","registerAgent(address,string,string)":"7216fe48","renounceOwnership()":"715018a6","setMetadataURI(uint256,string)":"087dce94","transferOwnership(address)":"f2fde38b","updateReputation(uint256,uint256)":"0675f763"},"id":21}